{
  "contractName": "AutoMarket",
  "abi": [
    {
      "constant": true,
      "inputs": [
        {
          "name": "",
          "type": "address"
        }
      ],
      "name": "VehiculosBaratos",
      "outputs": [
        {
          "name": "Marca",
          "type": "string"
        },
        {
          "name": "Modelo",
          "type": "string"
        },
        {
          "name": "Linea",
          "type": "string"
        },
        {
          "name": "Cilindraje",
          "type": "uint256"
        },
        {
          "name": "Placa",
          "type": "string"
        },
        {
          "name": "Precio",
          "type": "uint256"
        },
        {
          "name": "Nuevo",
          "type": "bool"
        },
        {
          "name": "Comentarios",
          "type": "string"
        }
      ],
      "payable": false,
      "stateMutability": "view",
      "type": "function"
    },
    {
      "constant": true,
      "inputs": [
        {
          "name": "",
          "type": "address"
        }
      ],
      "name": "VehiculosCaros",
      "outputs": [
        {
          "name": "Marca",
          "type": "string"
        },
        {
          "name": "Modelo",
          "type": "string"
        },
        {
          "name": "Linea",
          "type": "string"
        },
        {
          "name": "Cilindraje",
          "type": "uint256"
        },
        {
          "name": "Placa",
          "type": "string"
        },
        {
          "name": "Precio",
          "type": "uint256"
        },
        {
          "name": "Nuevo",
          "type": "bool"
        },
        {
          "name": "Comentarios",
          "type": "string"
        }
      ],
      "payable": false,
      "stateMutability": "view",
      "type": "function"
    },
    {
      "constant": true,
      "inputs": [
        {
          "name": "",
          "type": "address"
        }
      ],
      "name": "Vehiculos",
      "outputs": [
        {
          "name": "Marca",
          "type": "string"
        },
        {
          "name": "Modelo",
          "type": "string"
        },
        {
          "name": "Linea",
          "type": "string"
        },
        {
          "name": "Cilindraje",
          "type": "uint256"
        },
        {
          "name": "Placa",
          "type": "string"
        },
        {
          "name": "Precio",
          "type": "uint256"
        },
        {
          "name": "Nuevo",
          "type": "bool"
        },
        {
          "name": "Comentarios",
          "type": "string"
        }
      ],
      "payable": false,
      "stateMutability": "view",
      "type": "function"
    },
    {
      "constant": false,
      "inputs": [
        {
          "name": "Placa",
          "type": "string"
        }
      ],
      "name": "ConsultarVehiculo",
      "outputs": [
        {
          "name": "",
          "type": "string"
        }
      ],
      "payable": false,
      "stateMutability": "nonpayable",
      "type": "function"
    },
    {
      "constant": false,
      "inputs": [
        {
          "name": "PrecioVehiculo",
          "type": "int256"
        },
        {
          "name": "ImpuestoVehiculo",
          "type": "int256"
        },
        {
          "name": "ValorTraspaso",
          "type": "int256"
        },
        {
          "name": "ComisionRunt",
          "type": "int256"
        }
      ],
      "name": "CalcularCostos",
      "outputs": [],
      "payable": false,
      "stateMutability": "nonpayable",
      "type": "function"
    },
    {
      "constant": false,
      "inputs": [
        {
          "name": "Marca",
          "type": "string"
        },
        {
          "name": "Modelo",
          "type": "string"
        },
        {
          "name": "Linea",
          "type": "string"
        },
        {
          "name": "Placa",
          "type": "string"
        },
        {
          "name": "Cilindraje",
          "type": "int256"
        },
        {
          "name": "Precio",
          "type": "int256"
        }
      ],
      "name": "CrearVehiculo",
      "outputs": [],
      "payable": false,
      "stateMutability": "nonpayable",
      "type": "function"
    },
    {
      "constant": false,
      "inputs": [
        {
          "name": "Placa",
          "type": "string"
        },
        {
          "name": "Cilindraje",
          "type": "int256"
        },
        {
          "name": "Precio",
          "type": "int256"
        }
      ],
      "name": "ActualizarVehiculo",
      "outputs": [],
      "payable": false,
      "stateMutability": "nonpayable",
      "type": "function"
    }
  ],
  "bytecode": "0x608060405234801561001057600080fd5b50611575806100206000396000f300608060405260043610610083576000357c0100000000000000000000000000000000000000000000000000000000900463ffffffff16806305601453146100885780631019b5721461030d578063475338371461038a5780635bcfdf03146103d55780638e1a9aab1461065a578063cf0e90fb146108df578063e9af00be14610a2e575b600080fd5b34801561009457600080fd5b506100c9600480360381019080803573ffffffffffffffffffffffffffffffffffffffff169060200190929190505050610b10565b6040518080602001806020018060200189815260200180602001888152602001871515151581526020018060200186810386528e818151815260200191508051906020019080838360005b8381101561012f578082015181840152602081019050610114565b50505050905090810190601f16801561015c5780820380516001836020036101000a031916815260200191505b5086810385528d818151815260200191508051906020019080838360005b8381101561019557808201518184015260208101905061017a565b50505050905090810190601f1680156101c25780820380516001836020036101000a031916815260200191505b5086810384528c818151815260200191508051906020019080838360005b838110156101fb5780820151818401526020810190506101e0565b50505050905090810190601f1680156102285780820380516001836020036101000a031916815260200191505b5086810383528a818151815260200191508051906020019080838360005b83811015610261578082015181840152602081019050610246565b50505050905090810190601f16801561028e5780820380516001836020036101000a031916815260200191505b50868103825287818151815260200191508051906020019080838360005b838110156102c75780820151818401526020810190506102ac565b50505050905090810190601f1680156102f45780820380516001836020036101000a031916815260200191505b509d505050505050505050505050505060405180910390f35b34801561031957600080fd5b50610388600480360381019080803590602001908201803590602001908080601f01602080910402602001604051908101604052809392919081815260200183838082843782019150505050505091929192908035906020019092919080359060200190929190505050610e5d565b005b34801561039657600080fd5b506103d360048036038101908080359060200190929190803590602001909291908035906020019092919080359060200190929190505050610e62565b005b3480156103e157600080fd5b50610416600480360381019080803573ffffffffffffffffffffffffffffffffffffffff169060200190929190505050610e68565b6040518080602001806020018060200189815260200180602001888152602001871515151581526020018060200186810386528e818151815260200191508051906020019080838360005b8381101561047c578082015181840152602081019050610461565b50505050905090810190601f1680156104a95780820380516001836020036101000a031916815260200191505b5086810385528d818151815260200191508051906020019080838360005b838110156104e25780820151818401526020810190506104c7565b50505050905090810190601f16801561050f5780820380516001836020036101000a031916815260200191505b5086810384528c818151815260200191508051906020019080838360005b8381101561054857808201518184015260208101905061052d565b50505050905090810190601f1680156105755780820380516001836020036101000a031916815260200191505b5086810383528a818151815260200191508051906020019080838360005b838110156105ae578082015181840152602081019050610593565b50505050905090810190601f1680156105db5780820380516001836020036101000a031916815260200191505b50868103825287818151815260200191508051906020019080838360005b838110156106145780820151818401526020810190506105f9565b50505050905090810190601f1680156106415780820380516001836020036101000a031916815260200191505b509d505050505050505050505050505060405180910390f35b34801561066657600080fd5b5061069b600480360381019080803573ffffffffffffffffffffffffffffffffffffffff1690602001909291905050506111b5565b6040518080602001806020018060200189815260200180602001888152602001871515151581526020018060200186810386528e818151815260200191508051906020019080838360005b838110156107015780820151818401526020810190506106e6565b50505050905090810190601f16801561072e5780820380516001836020036101000a031916815260200191505b5086810385528d818151815260200191508051906020019080838360005b8381101561076757808201518184015260208101905061074c565b50505050905090810190601f1680156107945780820380516001836020036101000a031916815260200191505b5086810384528c818151815260200191508051906020019080838360005b838110156107cd5780820151818401526020810190506107b2565b50505050905090810190601f1680156107fa5780820380516001836020036101000a031916815260200191505b5086810383528a818151815260200191508051906020019080838360005b83811015610833578082015181840152602081019050610818565b50505050905090810190601f1680156108605780820380516001836020036101000a031916815260200191505b50868103825287818151815260200191508051906020019080838360005b8381101561089957808201518184015260208101905061087e565b50505050905090810190601f1680156108c65780820380516001836020036101000a031916815260200191505b509d505050505050505050505050505060405180910390f35b3480156108eb57600080fd5b50610a2c600480360381019080803590602001908201803590602001908080601f0160208091040260200160405190810160405280939291908181526020018383808284378201915050505050509192919290803590602001908201803590602001908080601f0160208091040260200160405190810160405280939291908181526020018383808284378201915050505050509192919290803590602001908201803590602001908080601f0160208091040260200160405190810160405280939291908181526020018383808284378201915050505050509192919290803590602001908201803590602001908080601f01602080910402602001604051908101604052809392919081815260200183838082843782019150505050505091929192908035906020019092919080359060200190929190505050611502565b005b348015610a3a57600080fd5b50610a95600480360381019080803590602001908201803590602001908080601f016020809104026020016040519081016040528093929190818152602001838380828437820191505050505050919291929050505061150a565b6040518080602001828103825283818151815260200191508051906020019080838360005b83811015610ad5578082015181840152602081019050610aba565b50505050905090810190601f168015610b025780820380516001836020036101000a031916815260200191505b509250505060405180910390f35b6002602052806000526040600020600091509050806000018054600181600116156101000203166002900480601f016020809104026020016040519081016040528092919081815260200182805460018160011615610100020316600290048015610bbc5780601f10610b9157610100808354040283529160200191610bbc565b820191906000526020600020905b815481529060010190602001808311610b9f57829003601f168201915b505050505090806001018054600181600116156101000203166002900480601f016020809104026020016040519081016040528092919081815260200182805460018160011615610100020316600290048015610c5a5780601f10610c2f57610100808354040283529160200191610c5a565b820191906000526020600020905b815481529060010190602001808311610c3d57829003601f168201915b505050505090806002018054600181600116156101000203166002900480601f016020809104026020016040519081016040528092919081815260200182805460018160011615610100020316600290048015610cf85780601f10610ccd57610100808354040283529160200191610cf8565b820191906000526020600020905b815481529060010190602001808311610cdb57829003601f168201915b505050505090806003015490806004018054600181600116156101000203166002900480601f016020809104026020016040519081016040528092919081815260200182805460018160011615610100020316600290048015610d9c5780601f10610d7157610100808354040283529160200191610d9c565b820191906000526020600020905b815481529060010190602001808311610d7f57829003601f168201915b5050505050908060050154908060060160009054906101000a900460ff1690806007018054600181600116156101000203166002900480601f016020809104026020016040519081016040528092919081815260200182805460018160011615610100020316600290048015610e535780601f10610e2857610100808354040283529160200191610e53565b820191906000526020600020905b815481529060010190602001808311610e3657829003601f168201915b5050505050905088565b505050565b50505050565b6001602052806000526040600020600091509050806000018054600181600116156101000203166002900480601f016020809104026020016040519081016040528092919081815260200182805460018160011615610100020316600290048015610f145780601f10610ee957610100808354040283529160200191610f14565b820191906000526020600020905b815481529060010190602001808311610ef757829003601f168201915b505050505090806001018054600181600116156101000203166002900480601f016020809104026020016040519081016040528092919081815260200182805460018160011615610100020316600290048015610fb25780601f10610f8757610100808354040283529160200191610fb2565b820191906000526020600020905b815481529060010190602001808311610f9557829003601f168201915b505050505090806002018054600181600116156101000203166002900480601f0160208091040260200160405190810160405280929190818152602001828054600181600116156101000203166002900480156110505780601f1061102557610100808354040283529160200191611050565b820191906000526020600020905b81548152906001019060200180831161103357829003601f168201915b505050505090806003015490806004018054600181600116156101000203166002900480601f0160208091040260200160405190810160405280929190818152602001828054600181600116156101000203166002900480156110f45780601f106110c9576101008083540402835291602001916110f4565b820191906000526020600020905b8154815290600101906020018083116110d757829003601f168201915b5050505050908060050154908060060160009054906101000a900460ff1690806007018054600181600116156101000203166002900480601f0160208091040260200160405190810160405280929190818152602001828054600181600116156101000203166002900480156111ab5780601f10611180576101008083540402835291602001916111ab565b820191906000526020600020905b81548152906001019060200180831161118e57829003601f168201915b5050505050905088565b6000602052806000526040600020600091509050806000018054600181600116156101000203166002900480601f0160208091040260200160405190810160405280929190818152602001828054600181600116156101000203166002900480156112615780601f1061123657610100808354040283529160200191611261565b820191906000526020600020905b81548152906001019060200180831161124457829003601f168201915b505050505090806001018054600181600116156101000203166002900480601f0160208091040260200160405190810160405280929190818152602001828054600181600116156101000203166002900480156112ff5780601f106112d4576101008083540402835291602001916112ff565b820191906000526020600020905b8154815290600101906020018083116112e257829003601f168201915b505050505090806002018054600181600116156101000203166002900480601f01602080910402602001604051908101604052809291908181526020018280546001816001161561010002031660029004801561139d5780601f106113725761010080835404028352916020019161139d565b820191906000526020600020905b81548152906001019060200180831161138057829003601f168201915b505050505090806003015490806004018054600181600116156101000203166002900480601f0160208091040260200160405190810160405280929190818152602001828054600181600116156101000203166002900480156114415780601f1061141657610100808354040283529160200191611441565b820191906000526020600020905b81548152906001019060200180831161142457829003601f168201915b5050505050908060050154908060060160009054906101000a900460ff1690806007018054600181600116156101000203166002900480601f0160208091040260200160405190810160405280929190818152602001828054600181600116156101000203166002900480156114f85780601f106114cd576101008083540402835291602001916114f8565b820191906000526020600020905b8154815290600101906020018083116114db57829003601f168201915b5050505050905088565b505050505050565b60606040805190810160405280600781526020017f436974726f656e0000000000000000000000000000000000000000000000000081525090509190505600a165627a7a72305820d32d80c9986c9655680d5857e4b607d8f52dfd272e6d92810dad7dfb05ce53590029",
  "source": "pragma solidity ^0.4.0;\r\n\r\ncontract AutoMarket {\r\n\t\tstruct Vehiculo {\r\n\t\t    string Marca;\t\t\t \r\n\t\t    string Modelo;\t\t\t \r\n\t\t    string Linea;\t\t\t \r\n\t\t    uint Cilindraje;\t\t\t \r\n\t\t    string Placa;\t\t\t \r\n\t\t    uint Precio;\t\t \r\n\t\t    bool Nuevo;\t\t\t \r\n\t\t    string Comentarios;\r\n\t\t}\r\n\t\tmapping (address => Vehiculo) public Vehiculos;\r\n\t\tmapping (address => Vehiculo) public VehiculosCaros;\r\n\t\tmapping (address => Vehiculo) public VehiculosBaratos;\r\n\r\n\t\tfunction ConsultarVehiculo (string Placa) public returns (string){\r\n\r\n\t\t\treturn \"Citroen\";\r\n\t\t}\r\n\t\tfunction CalcularCostos (int PrecioVehiculo,int ImpuestoVehiculo,int ValorTraspaso,int ComisionRunt){\r\n\t\t\t\r\n\t\t}\r\n\t\tfunction CrearVehiculo (string Marca,string Modelo,string Linea,string Placa,int Cilindraje,int Precio){\r\n\t\t\t\r\n\t\t}\r\n\t\tfunction ActualizarVehiculo (string Placa,int Cilindraje,int Precio){\r\n\t\t\t\r\n\t\t}\r\n \r\n}\r\n\t\r\n\r\n",
  "sourcePath": "C:/Users/ale_v/Desktop/Blockchain sem 6/201820-proyecto-grupo3/runtime-blockchain/PruebaBlockchain/Models/test/contracts/Automarket.sol",
  "compiler": {
    "name": "solc",
    "version": "0.4.25+commit.59dbf8f1.Emscripten.clang"
  },
  "schemaVersion": "3.0.0-beta.1",
  "updatedAt": "2018-11-14T21:29:46.633Z"
}